:020000040800F2
:1000000010040020AD0100086B0B0008D50A0008A1
:10001000690B0008B9020008150C00080000000078
:100020000000000000000000000000006F0B00084E
:10003000BB020008000000006D0B0008710B0008F7
:10004000C7010008C7010008C7010008C701000870
:10005000C7010008C7010008C7010008C701000860
:10006000C7010008C7010008C7010008C701000850
:10007000C7010008C7010008C7010008C701000840
:10008000C7010008C7010008C70100080000000000
:10009000000000000000000000000000C701000890
:1000A000C7010008C7010008C7010008C701000810
:1000B000C7010008C7010008C7010008C701000800
:1000C000C7010008C7010008C7010008C7010008F0
:1000D000C7010008C7010008C701000800000000B0
:1000E000C7010008C7010008C701000800000000A0
:1000F000000000000000000000000000C701000830
:1001000000000000C7010008C7010008C70100087F
:1001100000000000000000000000000000000000DF
:10012000C7010008C7010008C7010008C70100088F
:10013000C7010008000000000000000000000000EF
:10014000000000000000000000000000C7010008DF
:10015000C7010008C7010008C7010008C70100085F
:10016000C7010008C70100080000000000000000EF
:10017000000000000000000000000000000000007F
:1001800000000000C701000800000000000000009F
:10019000C7010008C7010008DFF80CD000F07AF8AA
:1001A00000480047550C000810040020064880470E
:1001B00006480047FEE7FEE7FEE7FEE7FEE7FEE74C
:1001C000FEE7FEE7FEE7FEE7050C000899010008E0
:1001D0002DE9F05F0546002092469B46884606467C
:1001E000814640241BE0284641464746224600F00F
:1001F00041F853465A46C01A914110D31146184649
:10020000224600F028F82D1A67EB01084F462246D7
:100210000120002100F01FF817EB00094E41201EBD
:10022000A4F10104DFDC484631462A464346BDE8D6
:10023000F09FD2B201E000F8012B491EFBD27047BB
:100240000022F6E710B513460A4604461946FFF7A2
:10025000F0FF204610BD202A04DB203A00FA02F10C
:10026000002070479140C2F1200320FA03F31943A4
:1002700090407047202A04DB203A21FA02F0002146
:10028000704721FA02F3D040C2F1200291400843A6
:1002900019467047064C074D06E0E06840F0010340
:1002A00094E8070098471034AC42F6D3FFF778FF84
:1002B000B40C0008D40C0008FEE7704770B5044683
:1002C00000F0EAF80546601C02D0044800780444B7
:1002D00000F0E2F8401BA042FAD370BD00000020FD
:1002E0002DE9F84FDFF87C910022A9F1040B0327D8
:1002F0004FF00F0C09F1040AABF1040E01250B6855
:1003000095402B40AB426ED10C7904F00304012CD4
:1003100001D0022C15D18668540007FA04F826EAA9
:100320000806D1F80C8008FA04F848EA0608C0F874
:1003300008804468AC430D79C5F30015954025430A
:1003400045600C79E443A40708D0C568540007FA57
:1003500004F6B5438E68A6402E43C6600C7904F0BF
:100360000304022C11D1D40800EB8406356A54072B
:10037000E40E0CFA04F825EA0805D1F8108008FA12
:1003800004F848EA0508C6F820800568540007FA12
:1003900004F6B5430E7906F00306A6402E43066028
:1003A0004C6814F4403F57D02F4C256845F48045E5
:1003B0002560246822F0030504F4804400942B4C4B
:1003C00005EB0408D8F808589407260F0CFA06F431
:1003D000A543274CA04201D1002415E0254CA042A2
:1003E00002D1012410E037E0234CA04201D10224C5
:1003F0000AE0224CA04201D1032405E0204CA04297
:1004000001D1042400E00724B4402C43C8F8084874
:10041000D9F800404D464E689C43F60200D51C4377
:100420002C60DAF8004055464E689C43B60200D571
:100430001C432C60DBF800405D464E689C43B603CD
:1004400000D51C432C60DEF8004075464E689C4386
:10045000F60300D51C432C60521C102AFFF44EAF4B
:10046000BDE8F88F083C01404438024000300140AC
:10047000000002400004024000080240000C02405C
:10048000001002400069084000D0012070470AB106
:10049000816170470904FBE70148806870470000EC
:1004A0000000002002488168027811448160704792
:1004B000000000200B4810B5016841F40071016094
:1004C000016841F480610160016841F4807101605C
:1004D000032000F061F80F2000F006F800F024F887
:1004E000002010BD003C024070B50D4D04464FF495
:1004F0007A712878B1FBF0F00A490968B1FBF0F095
:1005000000F0D4FA48B9102C07D200222146501E20
:1005100000F022F800206C6070BD012070BD00006A
:10052000000000200C0000200A4808B5016841F4D2
:1005300080410160006800F4804000900548001F81
:10054000016841F080510160006800F08050009027
:1005500008BD000044380240F0B40E4B1B68C3F3E2
:100560000223C3F10704042C00D904241D1D072D08
:1005700001D2002300E0DB1E012606FA04F56D1E01
:100580000D409D409E40761E164045EA0601F0BC97
:1005900000F041BB0CED00E0064A00F007011068D6
:1005A0004FF6FF03184040EA01200349084310605A
:1005B000704700000CED00E00000FA052DE9F0475F
:1005C0000D46040065D0DFF81491D9F80000EFB2B1
:1005D00000F00700A84207D289F80070D9F800009F
:1005E00000F00700A84254D120683D4E810712D583
:1005F000400703D5306840F4E050306020780007B1
:1006000003D5306840F4604030603068A16820F065
:10061000F000084330602078C0072DD03049606872
:100620000839012812D0022813D0032811D00968F4
:10063000890700292DDA316821F003010143316077
:10064000FFF72AFF804641F2883A0EE009688903E5
:10065000EFE709688901ECE7FFF71EFFA0EB08014F
:10066000514502D90320BDE8F0873068616800F089
:100670000C00B0EB810FEFD1D9F80010484601F023
:100680000701A94207D90770006800F00700A842D7
:1006900001D00120E7E72078400705D53068E16800
:1006A00020F4E050084330602078000706D5306819
:1006B000216920F4604040EAC100306000F018F881
:1006C0003168084AC1F30311515CC840064908600B
:1006D00006480068FFF708FF0020C4E7003C02401E
:1006E00008380240A40C00080C0000200400002080
:1006F000154810B5006810F00C01144813D0144BC5
:1007000004290FD008290ED10F4C241F216801F0B5
:100710003F022168490207D52068C0F38810A0FB7A
:10072000030106E0184610BD2168C1F38811A1FB42
:1007300000010023FFF74CFD2168C1F30141491C72
:100740004900B0FBF1F010BD083802400024F4006D
:1007500040787D012DE9F84F040075D02078DFF84E
:1007600038A3C007AAF1040548D00AF104000168C3
:10077000C1F38101012908D00068C0F3810002287B
:100780000AD1DAF80000400206D52868800335D582
:1007900060680028E1D031E06068B0F5803F10D09B
:1007A000B0F5A02F286810D020F480302860286889
:1007B00020F4802028606068A0B1FFF76DFE064637
:1007C0000CE0286840F48030F4E740F48020286092
:1007D000F7E7FFF761FE801B642871D82868800363
:1007E000F7D50BE0FFF758FE064604E0FFF754FE8E
:1007F000801B6428F1D828688003F7D42078DFF8BC
:100800009C9280074FF0000B3DD5A348001D016866
:1008100011F00C0F08D00068C0F3810002280AD143
:10082000DAF80000400206D42868800715D5E06891
:10083000012809D111E0E068B8B10120C9F8000031
:10084000FFF72AFE064605E022E1FFF725FE801BA2
:100850000228C2D828688007F7D52868216920F0C7
:10086000F80040EAC10028600DE0C9F800B0FFF7C9
:1008700013FE064604E0FFF70FFE801B02281FD878
:1008800028688007F7D42078000722D5824F844853
:100890006169703771B101210160FFF7FDFD064606
:1008A00004E0FFF7F9FD801B022809D838688007AB
:1008B000F7D50EE0C0F800B0FFF7EEFD064605E004
:1008C00082E0FFF7E9FD801B02287DD838688007A9
:1008D000F7D42078400765D56F484FF000083C30CA
:1008E0000068C0000BD46C483C30016841F0805176
:1008F000016000684FF0010800F080500090694FDF
:100900003868C0050FD4386840F480703860FFF74D
:10091000C3FD064604E0FFF7BFFD801B022853D845
:100920003868C005F7D55C4FA0686C3701280FD038
:100930000528386810D020F001003860386820F0B1
:1009400004003860A068B0B1FFF7A6FD06460EE0CF
:10095000386840F00100F4E740F004003860F7E741
:10096000FFF79AFD811B41F28830814263D83868D5
:100970008007F5D50DE0FFF78FFD064606E0FFF78F
:100980008BFD811B41F28830814254D83868800742
:10099000F5D4B8F1000F05D03F483C30016821F094
:1009A00080510160A069B8B33B49091D0968C1F3D2
:1009B0008101022946D00228584606D0C9F86000B5
:1009C000FFF76AFD044639E035E04F46C9F860009C
:1009D000FFF762FD064604E0FFF75EFD801B02287C
:1009E00029D828688001F7D4D4E907010843A16A0F
:1009F0002D4A490802EB0141626A41EA821108432B
:100A000094F82C1040EA0161CAF800100120386601
:100A1000FFF742FD044605E03CE0FFF73DFD001B0B
:100A2000022808D828688001F7D533E0FFF734FDA5
:100A3000001B022802D90320BDE8F88F2868800136
:100A4000F4D427E00128F7D0DAF80000E26900F4D6
:100A5000800191421CD1226A00F03F01914217D1DE
:100A600047F6C071626A0140B1EB821F10D1A26AE1
:100A70004FF0FF3300F4403103EB5202B1EB024F71
:100A800006D194F82C1000F07060B0EB016F01D02B
:100A90000120D1E70020CFE70438024000004742A0
:100AA000800E4742007000400000FFFF10B5401E5E
:100AB000B0F1807F01D3012010BD4FF0E0246061D0
:100AC0000F21601700F0A7F80020A0610720206127
:100AD000002010BDFEE7000070B586B01421684606
:100AE000FFF7AEFB1D480025016841F004010160DD
:100AF000016801F004010591016841F08001016085
:100B0000016801F080010591016841F00101016077
:100B1000016801F001010591016841F002010160E5
:100B200000680F4E00F002004FF4005405900022C0
:100B300021463046FFF7ABFC00940124694630465D
:100B40000194CDE90245FFF7CBFBCDE900456946AD
:100B500004480294FFF7C4FB06B070BD3038024071
:100B60000008024000000240FEE7FEE770477047C1
:100B7000FFF798BC30B593B030216846FFF760FBB3
:100B800014210CA8FFF75CFB1C480025016841F00C
:100B900080510160006800F0805011901848016891
:100BA00041F4404101600068022400F4404011908B
:100BB0000120039010200490009406940820CDE9B1
:100BC00007506420CDE9090404200B906846FFF724
:100BD000C1FD08B172B6FEE70CA90F2081E8310013
:100BE0004FF48050CDE90F0503210CA8FFF7E6FC78
:100BF000002801D072B6FEE713B030BD4038024085
:100C0000007000400248016841F4700101607047C3
:100C100088ED00E0FEE70907090E002804DB00F17B
:100C2000E02080F80014704700F00F0000F1E02091
:100C300080F8141D704702E008C8121F08C1002A7E
:100C4000FAD170477047002001E001C1121F002A4D
:100C5000FBD17047FFF72EFCFFF78CFFFFF73CFF3F
:100C60000E4F0F4C4FF400564FF4FA7501213846E1
:100C7000FFF708FC0028F9D1002231462046FFF793
:100C800006FC2846FFF71AFB012231462046FFF7F3
:100C9000FEFB2846FFF712FBE8E7000000000240D9
:100CA00000080240000000000000000001020304F0
:100CB00006070809D40C00080000002010000000FE
:100CC000360C0008E40C00081000002000040000AE
:100CD000460C0008010000001000000000000000A9
:040CE0000024F400F8
:040000050800019955
:00000001FF
